:020000040800F2
:1000000028090020350200087B320008F12C000886
:1000100079320008B71C00085735000800000000BE
:100020000000000000000000000000007F32000817
:10003000B91C0008000000007D3200088132000871
:100040004F0200084F0200084F0200084F0200084C
:100050004F0200084F0200084F0200084F0200083C
:100060004F0200084F0200084F0200084F0200082C
:100070004F0200084F0200084F0200084F0200081C
:100080004F0200084F0200084F0200084F0200080C
:100090004F0200084F0200084F0200084F020008FC
:1000A0004F0200084F0200084F0200084F020008EC
:1000B0004F0200084F0200084F0200084F020008DC
:1000C0004F0200084F0200084F0200084F020008CC
:1000D0004F0200084F0200084F0200084F020008BC
:1000E0004F0200084F0200084F02000800F002F81B
:1000F00000F090F80AA090E8000C82448344AAF132
:100100000107DA4501D100F085F8AFF2090EBAE82F
:100110000F0013F0010F18BFFB1A43F0010318473B
:10012000284B0000484B0000103A24BF78C878C123
:10013000FAD8520724BF30C830C144BF04680C60ED
:10014000704700000023002400250026103A28BF35
:1001500078C1FBD8520728BF30C148BF0B60704739
:100160006E2900F01B82702900F05D83662904F07F
:10017000DC84652904F0D984672904F0D6846129D8
:1001800004F0D58403681B0A28BF41F08001692967
:1001900000F0C881642900F0C581752900F0C28192
:1001A0006F2900F0EA82782900F02983E92900F01C
:1001B0008582E42900F08282F52900F07F82EF2910
:1001C00000F0E782F82900F028830368DB0928BFE4
:1001D00041F08001632901F02B80732901F0308008
:1001E000E32901F03B80F32901F0408000207047B3
:1001F0001FB501F08DF804000020002104F01EFA64
:10020000401C60600020002104F002FAE0601FBD85
:1002100010B510BD01F04EF81146FFF7E9FF04F0EC
:1002200005F801F02BF903B4FFF7F2FF03BC01F06E
:1002300073F900000948804709480047FEE7FEE7D8
:10024000FEE7FEE7FEE7FEE7FEE7FEE7FEE7FEE786
:1002500004480549054A064B704700001F33000853
:10026000ED000008280300202809002028050020B0
:100270002805002010B54C1084EA530404D54042F0
:10028000C1F1000138BF491E1B4204D55242C3F1DF
:10029000000338BF5B1E00F06CF814F0804F04D0F0
:1002A0004042C1F1000138BF491E14F0004F04D094
:1002B0005242C3F1000338BF5B1E10BD1CB50C4693
:1002C000064B7B4469460090204600F080F90446C6
:1002D0000020694600F08EF920461CBD2F03000067
:1002E00010B5431C02E010F8011B71B18107FAD16F
:1002F0004FF0013202C88C1A8C4314EAC211F9D0B3
:10030000C01A0A0603D0C01E10BDC01A10BD0A04D0
:1003100001D0801E10BD0902FCD0401E10BD4FF060
:10032000000200B5134694469646203922BFA0E845
:100330000C50A0E80C50B1F12001BFF4F7AF090751
:1003400028BFA0E80C5048BF0CC05DF804EB890042
:1003500028BF40F8042B08BF704748BF20F8022B85
:1003600011F0804F18BF00F8012B7047704770479D
:10037000704753EA020C00F069802DE9F04B4FF012
:100380000006002B1FBFB3FA83F503FA05F424FA25
:1003900005F65E4012BF1643B2FA82F502FA05F482
:1003A000C5F120051EBF22FA05FC44EA0C042035E5
:1003B00056EA044C4FEA144418BF641C4FF000087E
:1003C0004FF00009904271EB030C39D3002919BF9B
:1003D000B1FA81F701FA07F6B0FA80F700FA07F6EA
:1003E000C7F120071EBF20FA07FC46EA0C0620379B
:1003F000B6FBF4FCA7EB0507103F07F01F0BCBF192
:1004000020060CFA0BFB2CFA06F644BFB346002676
:10041000202FA4BF5E464FF0000B5BEA060C08BF1E
:100420004FF0010B19EB0B09ABFB027C48EB060804
:10043000C01B06FB02CC0BFB03CC71EB0C01C1E72C
:100440000B46024641464846BDE8F08B13B54FF0D7
:1004500000004FF00001AFF30080BDE81C40704782
:1004600070B5044685690068C10601D5302600E0F4
:100470002026C00707D070BDD4E90121304690473F
:10048000206A401C20626D1EF6D570BD70B5044612
:1004900085690078C00707D170BDD4E9012120200B
:1004A0009047206A401C20626D1EF6D570BD096819
:1004B0004A0501D540B27047C905FCD500B2704766
:1004C00009684A0501D5C0B27047C905FCD580B29C
:1004D000704770B50C460546012A05D0287880067D
:1004E00000D5EA69002302E0012305E05B1C93428A
:1004F00002D2E05C0028F9D1A869E618C01AA86108
:10050000286A184428622846FFF7AAFF04E0D5E9C4
:10051000012114F8010B9047B442F8D32846FFF7A5
:10052000B5FF70BD2DE9F04106460024106875291D
:10053000314616A510D0FFF7BAFF002802DA404274
:1005400013A507E031688A0701D512A502E0490723
:1005500004D511A5012401E0FFF7B2FF00210A2212
:1005600006F1240709E0B0FBF2FCB0FBF2F302FB5A
:100570001C00303078541846491C0028F3D123461B
:100580002A463046BDE8F04100F061BA00000000A4
:100590002D0000002B000000200000001168026800
:1005A000006A530501D508700AE0D30501D508801B
:1005B00006E0130603D5C217C1E9000200E0086097
:1005C0000120704701694A1C02610878704700B534
:1005D0008FB0CDE901310021059105497944CDE97C
:1005E00003101146684600F029F90FB000BD000065
:1005F000E5FFFFFF0A6802F8010B0A607047000080
:100600002DE9FF5F15468A460446DFF8AC80F844C2
:100610000027D8E900103E46CDE9001010E03AF876
:1006200016106A4602A800F025FE411C07D021786A
:10063000890603D5E269391891420DD80744761C22
:100640002078800602D5E069B84205DDAE42E6DBDF
:100650003AF816000028E2D1A069C01BA06120462C
:10066000FFF7FEFED8E90010CDE90010002017E0EA
:100670003AF818106A4602A800F0FCFDB0F1FF3FFE
:1006800081460BD000250DF1080B05E0D4E90121CE
:100690001BF8050090476D1C4D45F7D308F101008C
:1006A000B0428046E4DB206A384420622046FFF7EF
:1006B000EDFEBDE8FF9F00003A4500002DE9F04146
:1006C0008046D21D22F007020025D2E90002F5295A
:1006D00015A614D0011E72F1000106DA0023D0EB3A
:1006E000030063EB020211A608E0D8F800108B07A4
:1006F00001D50FA602E0490701D50EA60125114636
:10070000002408F1240704E000F05CF930323A5587
:10071000641C50EA0102F7D12B463246214640467E
:10072000BDE8F04100F093B9000000002D0000008A
:100730002B0000002000000030B4002100F1240450
:1007400008E002F00705D208303542EA4372DB08C0
:100750006554491C52EA0305F3D10468002310A232
:10076000250707D5A40600D421B1C46901230DA231
:10077000641EC46130BC00F06AB910B5044621465D
:100780001068FFF79DFE02462046BDE8104000239A
:10079000D2E7D21D22F00701D1E90023CCE7000007
:1007A0000000000030000000F0B40D46018809058B
:1007B00002D5214C7C4402E01F4C7C440E340021C5
:1007C00000F1240608E002F00F071209E75D42EA93
:1007D00003721B097754491C52EA0307F3D10278CC
:1007E0000023120704D5702D06D009B1022311345D
:1007F0002246F0BC00F02BB901231034F8E770B5A5
:1008000004460D4621461068FFF75AFE0246294667
:100810002046BDE870400023C6E7D21D22F0070342
:10082000D3E90023C0E70368126843F020030360A4
:100830000823C3610023B7E79C4300002DE9F05F64
:10084000894604464FF0000ADFF874B1FB44C0F853
:1008500020A02046E1688847002874D0252806D0CB
:10086000D4E901219047206A401C2062F1E700266C
:100870005F462046E16888472028054607DB312D82
:1008800005D2781910F8200C08B10643F1E7B0073B
:1008900001D526F00406C4F81CA00027C4F818A04F
:1008A0002A2D09D0284602F07BFE38B304EB8708D6
:1008B000303DC8F8185019E059F8041B204604EBE5
:1008C00087029161E1688847012F054618D1E069E8
:1008D000002820DA26F020061DE0D8F8180000EBEA
:1008E000800005EB40003038C8F818002046E16869
:1008F0008847054602F054FE0028EED1012F0AD0A9
:100900002E2D08D12046E16888477F1C0546022F1E
:1009100046F02006C4DBA069002803DA404246F016
:100920000106A061F00701D026F010066C2D0BD057
:10093000682D09D04C2D39D06A2D35D0742D35D085
:100940007A2D33D016E038E0E1682F4620468847FC
:10095000B842054609D16C2F26D04FF48060E1687B
:10096000064320468847054604E06C2F1AD04FF412
:10097000807006430DB3A5F14100192802D8203537
:1009800046F400664A462946204626604E46FFF752
:10099000E7FB80B101280BD0F61D26F0070000F11F
:1009A000080956E74020E4E78020D8E70020D6E792
:1009B00006F104094DE7284652E7206ABDE8F09F9A
:1009C0002C43000030B5B0F10A024FEA900E71F1ED
:1009D00000034EEA817EB0EB0E0061EB91014FEA1D
:1009E000101E4EEA017E10EB0E0041EB11114FEA92
:1009F000102E4EEA016E10EB0E0041EB11214FEA72
:100A0000104E4EEA014E10EB0E0041EB1141401822
:100A100041F100014FEAD00040EA41704FEAD101B4
:100A200010EB80054FEA810444EA907444EB010422
:100A30006D1944EB0404521BA3414FF0000348BF5F
:100A40000A3200D530BD401C41F1000130BD2DE916
:100A5000F0470D4699469246044600F12408016885
:100A6000880604D5E06921F01001216000E0012032
:100A7000A84201DD471B00E00027A1697A1902EBBB
:100A80000900081AA0612078C00602D42046FFF7AA
:100A9000E7FC002608E0D4E901211AF80600904797
:100AA000206A401C761C20624E45F4DB2078C0068C
:100AB0000AD52046FFF7D4FC06E0D4E90121302016
:100AC0009047206A401C2062381EA7F10107F4DC21
:100AD00007E0D4E9012118F805009047206A401C7E
:100AE0002062281EA5F10105F3DC2046FFF7CEFCAD
:100AF0002078000602D50220BDE8F0870120FBE740
:100B000070472DE9FF4F0C461E464FF0FF378BB064
:100B1000D2E90001DDF860800A908A46C1F30A55E7
:100B200005B93D46002108464FF00000BAF1000F1C
:100B300000F4400005DA00EB80004FF4400101EAC8
:100B400050004FEA9059B9F1010F00DDB9460A98FB
:100B500050EA4A000ED044F61050A5F2FF35454346
:100B60002F14B8F1000F1ED07542291E1EDDC9F1E9
:100B700000021CE0B8F1010F4FF0000001D030215D
:100B800003E0F24305E02154401CB042FBDB304659
:100B90000022002121540B99C1F80880C1E90020EE
:100BA0000FB0BDE8F08FBD1B6D1CDEE74A4600DAD2
:100BB000694206A800F0F0FB06AB93E8070003AB20
:100BC00083E8070050460A9900F0ADFC8DE8070065
:100BD000A0F500501F3800900398002D0ADD42F266
:100BE0001F014A460844002303A90390684600F009
:100BF00016FF09E0A0F500504A461F38002303A95C
:100C00000390684600F020FF8DE807000004000C08
:100C100003D04FF0FF30410800E01046B8F1000F5C
:100C200003D00022009215461EE0751E05D4FFF782
:100C3000C9FE303262556D1EF9D5B3460122084314
:100C400002D000227F1C04E02078302801D100224D
:100C50007F1E002A099784D01DE0112D07DAFFF7C7
:100C6000B1FE303262556D1C50EA0102F5D10843E5
:100C700002D00098C8B10EE00021681E05E0235C98
:100C8000625C63542254401E491C8142F7DBAB4630
:100C9000A81B401E0990002004F80B000B98099A2D
:100CA000C0F80880C0E9002B7AE711264FF0000851
:100CB00057E72DE9F04F88460446D21D22F0070180
:100CC00091B0D1E90001CDE90A0102F045FC0246EC
:100CD0000B98C00F01D02D2007E02068810701D5B7
:100CE0002B2002E0202101EAC000032A099001D054
:100CF000072A05DB03464146204600F00DFB0BE1C9
:100D00002078800601D5E06900E00620B8F1650F83
:100D1000814606D0B8F1660F18D0B8F1670F70D1D0
:100D200031E00020B9F1110F009001DB112301E047
:100D300009F101030AAA01A90CA8FFF7E2FEDDE907
:100D40000C70002609F10105834647E001204B465F
:100D500000904FF000470AAA01A90CA8FFF7D1FEA6
:100D6000DDE90DB00C995D46002610B909F10100CE
:100D70000D18B9EB050003D4C0F1FF3609F10105E8
:100D8000A5EB09002BE0B9F1010F01DA4FF00109E1
:100D90000020B9F1110F0090484601DD112300E059
:100DA00003460AAA01A90CA8FFF7ABFEDDE90C7007
:100DB0004D4600268346207800070AD4AB4500DA6A
:100DC0005D4601A8012D04DD411911F8011C3029EF
:100DD00007D04F4502DA17F1040F04DA01208246EA
:100DE0000FE06D1EEEE7002F02DCED1B3E4403E03A
:100DF000781CA84200DD7D1CB81B00F1010A4FF0F1
:100E000000472078000703D4AA4501DB4FF0FF3AE2
:100E10000021B7F1004F0DF143088DF8431024D0A5
:100E200002202B23002F01DA7F422D230A21021EEC
:100E3000A0F1010000DC5FB197FBF1FC97FBF1F240
:100E400001FB1C7C17460CF1300C08F801CDEEE7D5
:100E5000A8F1010003702188090501D5452100E0B2
:100E60006521A0F1010800F8011C09980FA9A1EB68
:100E70000807FF1D00B10120411901EBEA70A169CB
:100E80003844081A401EA0612078C00602D42046CB
:100E9000FFF7E6FA099828B1D4E901219047206AC2
:100EA000401C20622078C00622D52046FFF7D8FAE1
:100EB0001EE0002E04DBB34502DD01A8805D00E0EA
:100EC0003020D4E901219047206A401C2062761C22
:100ED000AAF101005FEA000A0AD100F019FAC0681D
:100EE0000168405CD4E901219047206A401C2062DF
:100EF000281EA5F10105DCDC07E0D4E9012118F882
:100F0000010B9047206A401C2062381EA7F10107A0
:100F1000F3DC2046FFF7BAFA032011B041E60000E7
:100F20002DE9F04F04460D46D21D22F0070089B08E
:100F3000D0E900974846394602F00EFB0246F80F0A
:100F400001D02D2307E02068810701D52B2302E083
:100F5000202101EAC0038DF820300BB1012000E010
:100F60000020032A824601D0072A04DB29462046B6
:100F700000F0D2F93FE12078800601D40D2500E091
:100F8000E569C7F30A560D2D49DA00214FEA175BD0
:100F900008464FF00000002F00F4400007DA00EB95
:100FA00080004FF4400100EBD07001EA6000811531
:100FB000012901DD4FF0FF3100224FEA850CBCF121
:100FC000180F06D31346ACF118004FF08052C24000
:100FD00003E04FF4801323FA0CF30CF10C0CBCF17A
:100FE000200F04D3ACF1200C09FA0CF001E007FA51
:100FF0000CF000294FF0004801DD18B90FE00ED1C8
:1010000040450CD319EB02095F4121B9404502D19B
:101010009F4329EA0209BBEB175F00D0761C2088AA
:10102000000502D57B48784402E07A4878441938B4
:1010300008AA302302F80A30037C0AF10101002ECD
:101040000AF1020A53546A4602DC4FF0300101E013
:101050004FF031014FF001088DF8001002D0A6F2D8
:10106000FF3603E059EA470100D06B4E002D02DC49
:101070002178090704D54FF002082E218DF80110C0
:10108000C44600210BE0C7F303433F01C35C491C86
:101090006D1E02F80830052908F1010801DA002D5B
:1010A000F1DC00210CE000EB1973491C1B786D1E6C
:1010B000082902F808304FEA091908F1010801DA95
:1010C000002DF0DC21688B0602D516E0A8F101089E
:1010D000E04505DD02EB080313F8013C302BF5D0A9
:1010E000B8F1000F09DD02EB080313F8013C2E2BC9
:1010F00003D1090701D4A8F10108002D05DD3E2127
:1011000002F808106D1E08F10108407C002E02F85C
:10111000080008F1010804DA2D20764202F80800E0
:1011200002E02B2002F808000A214FF47A70864270
:1011300008F101080BDB96FBF0F3303302F80830BE
:1011400096FBF0F308F1010800FB136601E0642E42
:101150000CDB642096FBF0F3303302F8083096FB8A
:10116000F0F308F1010800FB136601E00A2E06DB2C
:1011700096FBF1F0303002F8080008F1010896FB08
:10118000F1F001FB1060303002F80800A16908F1AD
:10119000010808EB050202EB0A00081AA06120789A
:1011A000C00602D42046FFF75BF9216A08AE01EBC6
:1011B0000A00206204E0D4E9012116F8010B9047EF
:1011C000BAF1010AF7D22078C00602D52046FFF70F
:1011D00047F96E4609E016F8010B3E280FD0D4E916
:1011E00001219047206A401C2062B8F10108F2D228
:1011F0002046FFF74BF909B00320BDE8F08F206AC5
:101200002844206203E0D4E90121302090476D1E7C
:10121000EBD3F8E7763B000002FCFFFF10B5436913
:1012200013B1AFF3008001E0FFF753F9012010BDC7
:10123000127800F124010A7000224A700122EDE7C1
:1012400011684FF0FF32E9E710B5436913B1AFF30E
:10125000008001E0FFF7D4F9012010BD128800F1F1
:10126000240182840022C2840122EDE711684FF03C
:10127000FF32E9E770B516460C46054600F040F827
:10128000036893F80101012806D0FF2C0FD8185DE0
:1012900068B101202C7070BDD3F807013246214699
:1012A00003F2071303442846BDE8704018474FF087
:1012B000FF3070BD754600F0EBF8AE46050069469C
:1012C000534620F00700854618B020B5FEF7C0FF52
:1012D000BDE820404FF000064FF000074FF0000837
:1012E0004FF0000B21F00701AC46ACE8C009ACE8B8
:1012F000C009ACE8C009ACE8C0098D4670470000E1
:1013000010B500F005F8001D10BD00BF313300001E
:1013100000487047E80200202DE9F0411F460446CE
:1013200003260168072A01F4006004DB08B116A552
:1013300005E016A503E008B115A500E015A521F00C
:1013400010002060A069C01EA0610FB1401EA06106
:101350002046FFF785F84FB1D4E901213846904780
:10136000206A401C2062C01C206206E0206AFAE766
:10137000D4E9012115F8010B9047761EF8D22046DA
:10138000FFF784F8BDE8F0814E414E006E616E00BB
:10139000494E4600696E66002DE9F04781461646C3
:1013A0008AB0354878440DC88DE80D00324878443D
:1013B000801C03AC0DC884E80D0041F69B30084446
:1013C000372190FBF1F290FBF1F5A5F1800501FBCF
:1013D00012041B3C02D56442012000E00020DFF82B
:1013E00098A080460027FA44AAF1BE0A0EE0E00762
:1013F0000AD03246684607EB470101230AEB810118
:1014000000F022FB8DE8070064107F1C002CEED159
:10141000194F7F44AE3F19E0E80715D007EB0410E1
:101420000DF1180A90E80E008AE80E00C068F0423C
:1014300001D1981908903246012306A903A800F0AB
:1014400003FB03AB83E807006D10641C002DE3D1A0
:101450004FF0010332466946B8F1000F03A802D0ED
:1014600000F0DDFA01E000F0EFFAC9E90001C9F887
:1014700008200AB0BDE8F0878838000010B504469F
:10148000AFF300802046BDE81040FEF7CCBE000060
:1014900000487047C80200204FF0013C50F8042B70
:1014A00051F8043B9A4221D1A2EB0C03934313EA77
:1014B000CC1317D150F8042B51F8043B9A4215D1A4
:1014C000A2EB0C03934313EACC130BD150F8042B7B
:1014D00051F8043B9A4209D1A2EB0C03934313EA5F
:1014E000CC13DBD04FF00000704700BFD01A01BA18
:1014F000B1FA81F101F0180122FA01F0CB40C1F1FB
:101500002001DBB2C0B2C01A2CFA01F3D11A914308
:1015100011EAC311E6D1704701491820ABBEFEE7BE
:101520002600020070475FEA400C08BF91F0000FF0
:101530004FEA8C234FEAC12243EA51514FEA1C5033
:1015400018BF00F5F0404FEA300018BF41F00041ED
:101550005FEA6C5C00F02980BCF1FF3F08BF40F0FF
:1015600080407047130C06BF12044FF0100C4FF070
:10157000000C130E04BF12020CF1080C130F04BF71
:1015800012010CF1040C930F04BF92000CF1020C39
:10159000D30F04BF52000CF1010C11464FF00002B2
:1015A000A0F11F00A0EB0C00704711F0004F08BF26
:1015B000704731F000413FF4D5AF0B0C06BF090472
:1015C0004FF0100C4FF0000C0B0E04BF09020CF191
:1015D000080C0B0F04BF09010CF1040C8B0F04BFA6
:1015E00089000CF1020CCB0F04BF49000CF1010C77
:1015F000CCF12003A0EB0C0022FA03F302FA0CF268
:1016000041EA030100F10100704720F07F4C80EABD
:10161000030023F07F47ACEB070303F57C5300F096
:10162000004003F1FF032DE980494FEA154B09B44F
:101630004FEA144325EA0B4E24EA03480FF204262E
:1016400006EB132749083E785FEA320203FB066780
:10165000C7F5000707FB06F64FEA54374FEAD646B0
:1016600006F1020607FB066CCCF1005C4FEA1C4752
:101670002CEA074C07FB06F40CFB06F504EB1546B9
:101680004FEA961634BF00204FF000404FEAD137A2
:1016900006FB07FC4FEA1C4C0CFB0BF7D21B03FBB1
:1016A0000CF761EB07010CFB0EF7B0EB074072EB98
:1016B00017420CFB08F734BFA2EB0742B2EB07421C
:1016C00061EB17414FEA0C444FEA910706FB07FC18
:1016D0004FEA1C4C0CFB0BF7B0EBC74072EB5732D8
:1016E00003FB0CF734BFA2EBC742B2EBC74261EB7E
:1016F00057310CFB0EF7B0EBC70072EB57720CFBC7
:1017000008F734BFA2EBC702B2EBC70261EB577117
:10171000039F4FEA816141EA921104EBCC044FEA46
:10172000D1374FEA826206FB07FC42EA90124FEA89
:1017300080604FEA1C4C0CFB0BF7D21B03FB0CF731
:1017400061EB07010CFB0EF7B0EB074072EB1742A1
:101750000CFB08F734BFA2EB0742B2EB074261EB88
:1017600017414FEA8C554FEA910704EB9C2406FB86
:1017700007FC4FEA1C4C0CFB0BF7B0EBC74072EBBD
:10178000573203FB0CF734BFA2EBC742B2EBC742A0
:1017900061EB57310CFB0EF7B0EBC70072EB5772E1
:1017A0000CFB08F734BFA2EBC702B2EBC70261EB38
:1017B000577115EB4C254FEA816141EA92114FEACE
:1017C00082624FEAD13742EA901206FB07FC44F1ED
:1017D00000044FEA80604FEA1C4C0CFB0BF7D21B55
:1017E00003FB0CF761EB07010CFB0EF7B0EB0740B6
:1017F00072EB17420CFB08F734BFA2EB0742B2EBC7
:10180000074261EB174115EB1C154FEA813141EAA4
:1018100092414FEA823242EA90424FEA80304FEAE8
:101820000C7644F1000448EA03434EEA0B484FF0BB
:10183000000EB2EB080C71EB030724BF6246394679
:101840004EEB0E0E4FF0000B0018524149414BEB8E
:101850000B0BB2EB080C71EB03077BF1000B24BF01
:10186000624639464EEB0E0E4FF0000B0018524107
:1018700049414BEB0B0BB2EB080C71EB03077BF10F
:10188000000B24BF624639464EEB0E0E51EA0207AA
:1018900018BF46F0010616EB0E7655F1000254F122
:1018A000000103D5BDE88901BDE80088BDE88901D4
:1018B000BDE80048B619524141EB0101A3F1010313
:1018C000704780807F7E7D7C7B7A797877767675AD
:1018D0007473727171706F6E6E6D6C6C6B6A6A6925
:1018E0006868676666656464636362616160605FBF
:1018F0005F5E5E5D5D5C5C5B5B5A5A595958585738
:10190000575656555555545453535252525151509F
:1019100050504F4F4F4E4E4D4D4D4C4C4C4B4B4BF2
:101920004A4A4A4949494848484747474746464638
:101930004545454444444443434343424242424173
:101940004141002B9C4630D477002BD01CB54FEA88
:10195000370703B44FF010004FF01001BAF1000F39
:1019600006D0BCF1000FDCBF40F0080040F00801D9
:101970004FF000000FBCBDE810400BF1010BBBF1B4
:10198000010F08BF5FEA170722BF12F1010211F130
:1019900001014FF0004143F1000300F0004043EA31
:1019A00000007047F9D35708D0E746EA064613F11E
:1019B000400F4FEA16461FDD13F1200FDFBF16431D
:1019C0000A46002120335B42BED0C3F1200746EA1D
:1019D000064602FA07F74FEA164646EA0706C3F13B
:1019E000200722FA03F201FA07F721FA03F14FF078
:1019F000000342EA0702A7E746EA020646EA06466D
:101A00004FEA164646EA0106BCBF46EA0646360CD1
:101A10004FF000034FF000024FF0000194E72DE972
:101A2000804C9A46934670B491E8380007C831EA72
:101A3000400C48BF34EA430C03D5FFF7E6FDFFF73F
:101A400080FFF0BCBDE8008C2DE9804C9A4693469F
:101A500070B491E8380007C810F0804F08BF13F049
:101A6000804F03D100F005F8FFF76BFFF0BCBDE835
:101A7000008C20F07F4780EA030023F07F4C07EBC7
:101A80000C03A3F57C5300F00040A3F1FE0392F099
:101A9000000F00F0B38095F0000F00F077802DE983
:101AA00001494FEA11404FEA144621EA004800FB81
:101AB00006FC24EA064708FB06F607FB08F800FBCD
:101AC00007F718EB06484CEB164C4FEA124B18EB95
:101AD00007484FEA15464CEB174022EA0B4E0BFB2A
:101AE00006FC25EA06470EFB06F607FB0EFE0BFB7F
:101AF00007F71EEB064E4CEB164C4FF000061EEBA4
:101B0000074E4CEB174B18EB0B0840F1000018EB9D
:101B10000E0B58EB000840F100008F1A4FF0000147
:101B20003CBFC943661B14BFB5EB040C00213CBF8E
:101B3000C943F61B4FEA17444EEA8E0E27EA0445C6
:101B40004FEA1C4704FB07622CEA074C05FB07F72A
:101B50000CFB05F604FB0CFC16EB074642EB1742A8
:101B600016EB0C4642EB1C421BEB060658EB02023E
:101B7000414146EA9E0601D5BDE80189B6195241A8
:101B800041EB0101A3F10103BDE801894FEA1445CE
:101B90004FEA114724EA054621EA074C05FB07F402
:101BA00006FB07F70CFB06F105FB0CFC11EB0741EC
:101BB00044EB17444FEA124711EB0C4144EB1C4431
:101BC00022EA074C05FB07F206FB07F70CFB06F6BB
:101BD00005FB0CFC16EB074642EB174216EB0C46D6
:101BE00042EB1C456A1854F1000148BF7047B61912
:101BF000524141EB0101A3F10103704795F0000F41
:101C000037D04FEA11424FEA144721EA024624EA4C
:101C1000074C02FB07F106FB07F70CFB06F402FB7F
:101C20000CFC14EB074441EB17414FEA154714EB4A
:101C30000C4441EB1C4125EA074C02FB07F506FB6F
:101C400007F70CFB06F602FB0CFC16EB074645EB10
:101C5000174516EB0C4645EB1C42121951F10001D9
:101C600048BF7047B619524141EB0101A3F101038E
:101C700070474FEA14454FEA114724EA054621EA26
:101C8000074C05FB07F106FB07F70CFB06F24FF0CC
:101C9000000605FB0CFC12EB074241EB174112EB6F
:101CA0000C4251EB1C4148BF7047921841EB0101B7
:101CB000A3F101037047FEE7704772B6FEE700002C
:101CC00070B5044600F008F90546601C02D00448CF
:101CD0000078044400F000F9401BA042FAD370BD24
:101CE000300000202DE9F84FDFF8B891002409F109
:101CF000040A0AF1040B23460F270BF1040EC9E076
:101D00000125A5402A40AA427DD1674ED1F804C0E2
:101D1000ACEB0608B44532D014DCBCF1030F3AD06A
:101D200009DCBCF1000F2AD0BCF1010F1CD0BCF1C2
:101D3000020F31D11DE0BCF1110F17D0BCF1120F11
:101D40002AD119E0B8F5881F19D006DCB8F5803F14
:101D500015D0B8F5801F1FD111E0B8F5001F0ED0C7
:101D6000B8F5041F18D10AE0CB6815E0CB681B1D3D
:101D700012E0CB6808330FE0CB680C330CE08B68C3
:101D80002BB1012B4FF0080303D0456104E004237D
:101D900002E0056100E00023FF2A01D8064601E0C9
:101DA00000F104064FEA840501D9A5F12005D6F813
:101DB000008007FA05FC28EA0C0803FA05F548EA52
:101DC0000508C6F800804D68ED0062D5374DAE6954
:101DD00046F00106AE61AD6924F0030605F0010589
:101DE0000095334D06EB050CDCF80850A607360FBE
:101DF00007FA06F825EA0805DFF8B880404503D160
:101E00004FF0000817E044E0DFF8AC80404502D115
:101E10004FF001080FE0DFF8A480404502D14FF0F9
:101E2000020808E0DFF89880404502D14FF003082F
:101E300001E04FF0040808FA06F848EA0508CCF873
:101E400008804D68D9F80060ED034D4601D5164372
:101E500000E096432E604D68DAF80060AD03554609
:101E600001D5164300E096432E604D68DBF8006014
:101E7000ED025D4601D5164300E096432E604D68A5
:101E8000DEF80060AD02754601D5164300E09643CA
:101E90002E60641C0D682A46E5407FF431AFBDE832
:101EA000F88F0000000401400000111000100240F3
:101EB0000000014000080140000C014000100140FA
:101EC000001401408068084000D0012070470AB12A
:101ED000016170470904FBE7014880687047000012
:101EE0003000002070B5040025D094F83D00002596
:101EF00020B984F83C50204600F04EF9242084F8A4
:101F00003D002068016821F001010160206801683E
:101F100041F4004101602068016821F40041016042
:101F200000F08AFA4D4A6168914201D84C4900E0BC
:101F30004C49884201D2012070BD4B492368B0FB57
:101F4000F1F15E6826F03F060E435E6063689342DF
:101F500006D94FF4967359434FF47A73B1FBF3F1FA
:101F60002368491C1E6A26F03F06314319626168E6
:101F7000914210D84900401EB0FBF1F2521CC2F34E
:101F80000B02042A01D2042022E0B0FBF1F0401C35
:101F9000C0F30B001CE0A268F2B301EBC10303EB3A
:101FA0000116431EB3FBF6F35B1C43F480431B0591
:101FB00049D092B301EBC10202EB0111401EB0FB0C
:101FC000F1F0401CC0F30B0040F4804040F40040AE
:101FD0002168CA694CF6FF739A431043C861D4E97B
:101FE000071001432068026822F0C002114301601B
:101FF000D4E9030101432068826848F2FF339A4321
:1020000011438160D4E9050108432168CA6822F0C0
:10201000FF021043C86001E00EE016E0206801688E
:1020200041F0010101602564202084F83D00256312
:1020300084F83E50002070BD01EB4106431EB3FB07
:10204000F6F35B1CB3E70120C2E701EB4101401E40
:10205000B0FBF1F0401CC0F30B00B7E7A086010015
:1020600080841E0000093D0040420F002DE9F84F1A
:102070001F4690468A460446DDF82890FFF72CFF5D
:10208000054694F83D0020287FD1192301224049BC
:102090002046009500F0B8FE002876D194F83C0068
:1020A000012872D0012084F83C0020680168C9072B
:1020B00003D1016841F0010101602068016821F449
:1020C00000610160212084F83D00102084F83E006A
:1020D00000262664C4F824806785608D20852D48FD
:1020E000E0622B464A465146204600F019FE90B960
:1020F000206841698069009036E02A4649462046BA
:1021000000F001FF50B1206C042804D12068016860
:1021100041F4007101600120BDE8F88F606A216818
:1021200000780861606A401C6062618D491E6185AB
:10213000218D491E89B2218522685369DB435B07E3
:102140000BD451B100781061606A401C6062608DF0
:10215000401E6085208D401E20852A464946204627
:1021600000F02CFE0028CED1208D0028C5D154F8D7
:102170003D0B016841F400710160202004F81E0944
:10218000E67766770020C7E7FFE70220C4E7000094
:10219000020010000000FFFF10B586B00021009182
:1021A0000191029103910068104988421BD1104CA3
:1021B000A06940F00800A061A069694600F008002D
:1021C00004904FF44060009012200190032003908F
:1021D0000848FFF787FDE06940F48000E061E069AE
:1021E00000F48000049006B010BD000000580040CC
:1021F00000100240000C014002488168027811443E
:102200008160704730000020074810B5016841F038
:1022100010010160032000F067F80F2000F006F8BD
:1022200000F024F8002010BD0020024070B50D4DD4
:1022300004464FF47A712878B1FBF0F00A49096836
:10224000B1FBF0F000F0CEFA48B9102C07D2002212
:102250002146501E00F028F800206C6070BD01205F
:1022600070BD0000300000203C0000200C4808B584
:10227000816941F001018161816901F001010091F1
:10228000C16941F08051C161C06900F08050009087
:102290000448416821F0E06141F00071416008BDEF
:1022A0000010024000000140F0B40E4B1B680C46C9
:1022B000C3F30223C3F10705042D00D90425191D1A
:1022C000072901D2002300E0DB1E012606FA05F1F2
:1022D000491E214099409E40761E16403143F0BC75
:1022E00001F04EB90CED00E0064900F00702086865
:1022F0004FF6FF03184040EA0220034A10430860EB
:10230000704700000CED00E00000FA052DE9F047F1
:102310000F46050061D0434E306800F00700B84218
:1023200009D2306820F0070038433060306800F090
:102330000700B84251D128683B4C810712D54007AD
:1023400003D5606840F4E06060602878000703D53A
:10235000606840F4605060606068A96820F0F00038
:10236000084360602878C00728D06868012810D02A
:102370002168022810D0890700292EDA616821F02F
:10238000030101436160FFF7A7FD804641F28839F0
:102390000DE021688903EFE78901EDE7FFF79CFD78
:1023A000A0EB0801494502D90320BDE8F087606829
:1023B000696800F00C00B0EB810FEFD1306800F0DD
:1023C0000700B8420BD9306820F00700384330606E
:1023D000306800F00700B84201D00120E5E7287816
:1023E000400705D56068E96820F4E0600843606054
:1023F0002878000706D56068296920F4605040EA13
:10240000C100606000F028F86168084AC1F3031158
:10241000515CC8400649086006480068FFF706FF9F
:102420000020C2E70020024000100240324B0008AA
:102430003C00002034000020044805490068496839
:10244000044AC1F30221515CC84070473C0000209F
:1024500000100240424B000812A185B00FC98DE860
:102460000F0014A0144A006804905168134801F04A
:102470000C03042B10D0082B0ED1C1F38343C903E6
:102480001DF803000AD5516804AAC1F34041515C0C
:102490000A4A5043B0FBF1F005B070470849484381
:1024A000FAE7000002030405060708090A0B0C0DF1
:1024B0000E0F1010010200000010024000127A00FE
:1024C00000093D002DE9F84F040070D02078C04D80
:1024D000C00749D06868C0F38100012807D0686848
:1024E000C0F38100022809D16868C00306D52868B6
:1024F000800339D560680028E7D035E06068B0F522
:10250000803F0BD010B1B0F5A02F11D0286820F477
:1025100080302860286820F4802002E0286840F499
:1025200080302860606890B1FFF7D6FC06460AE06C
:10253000286840F480202860F0E700BFFFF7CCFC5B
:10254000801B642873D828688003F7D50CE0FFF758
:10255000C3FC064605E000BFFFF7BEFC801B6428F5
:10256000F0D828688003F7D420789A4E80074FF07F
:1025700001094FF0000839D5686810F00C0F07D03A
:102580006868C0F38100022809D16868C00306D4D6
:102590002868800714D52069012808D110E0206937
:1025A000B0B1C6F80090FFF797FC074605E00AE1D6
:1025B000FFF792FCC01B0228C4D828688007F7D513
:1025C0002868616920F0F80040EAC10028600DE049
:1025D000C6F80080FFF780FC074604E0FFF77CFCAC
:1025E000C01B022823D828688007F7D4207800076A
:1025F0002CD57948A169D9B1C0F80090FFF76CFCDF
:10260000074604E0FFF768FCC01B02280FD8686A81
:102610008007F7D571484FF4FA510068B0FBF1F02C
:10262000009000BF0098411E0091FAD20EE080E0B9
:10263000C0F80080FFF750FC074604E0FFF74CFCB1
:10264000C01B022875D8686A8007F7D42078400735
:1026500060D5E8690027C00008D4E86940F08050E0
:10266000E861E869012700F0805000905C4801684B
:10267000C90513D40168834641F480710160FFF7F6
:102680002BFC824606E000BFFFF726FCA0EB0A0009
:1026900064284ED8DBF80000C005F5D5E0680128B5
:1026A0000AD008B1052813D0286A20F0010028625A
:1026B000286A20F0040002E0286A40F00100286245
:1026C000E06841F2883B98B1FFF706FC82460BE0D8
:1026D000286A40F004002862EEE700BFFFF7FCFB29
:1026E000A0EB0A0159455AD8286A8007F6D50CE0B4
:1026F000FFF7F2FB824605E0FFF7EEFBA0EB0A01D5
:1027000059454CD8286A8007F6D41FB1E86920F0F3
:102710008050E861E06988B36968C1F381010229EA
:1027200044D00228C6F8608004D0FFF7D5FB0446E9
:1027300038E034E0FFF7D0FB074604E0FFF7CCFBBE
:10274000C01B02282BD828688001F7D4206AB0F576
:10275000803F05D16868A16820F4003008436860B4
:10276000D4E908010843696821F4741108436860DA
:10277000C6F86090FFF7B0FB044606E025E000BF16
:10278000FFF7AAFB001B022809D828688001F7D5AB
:102790001BE000BFFFF7A0FB001B022802D90320AB
:1027A000BDE8F88F28688001F4D40EE00128F7D046
:1027B0006868226A00F48031914204D1616A00F4B1
:1027C0007010884201D00120EAE70020E8E700000D
:1027D0000010024000004242800442423C000020BF
:1027E0000070004010B5401EB0F1807F01D3012081
:1027F00010BD4FF0E02460610F21601700F0C0FEB3
:102800000020A06107202061002010BD10B590F8C5
:102810003C20012A22D0012280F83C20CA688C6822
:1028200022F4407222434C6822F4806222430C68F6
:1028300022F4006222430C6922F4805222434C6944
:1028400022F400522243C969002322F480420A4341
:1028500001684A6480F83C30002010BD022010BDA1
:1028600070B590F83C20012A26D0012480F83C4025
:10287000022280F83D2003685A689D6822F07006A5
:102880000A6832435A600D4B02689A4208D0B2F18E
:10289000804F05D00A4B9A4202D00A4B9A4204D18B
:1028A000496825F080031943916080F83D4000217C
:1028B00080F83C10084670BD022070BD002C01401D
:1028C000000400400008004010B5040003D094F854
:1028D0003D0010B107E0012010BD002084F83C004D
:1028E000204600F01FF8022084F83D00211D2068DA
:1028F00000F016FD012084F8460084F83E0084F8BC
:102900003F0084F8400084F8410084F8420084F8D5
:10291000430084F8440084F8450084F83D0000201A
:1029200010BD000008B5124A01681248914207D153
:10293000816941F400618161806900F4006014E004
:10294000B1F1804F0AD00C4A91420FD1C16941F0D8
:102950000401C161C06900F0040006E0C16941F0F2
:102960000101C161C06900F00100009008BD0000D4
:10297000002C0140001002400008004090F83D107B
:10298000012901D001207047022180F83D10006824
:102990000B49884208D0B0F1804F05D009498842E0
:1029A00002D00949884204D1816801F00701062953
:1029B00003D0016841F00101016000207047000070
:1029C000002C0140000400400008004001680A6A31
:1029D00041F211131A4207D10A6A9B101A4203D11D
:1029E0000A6822F001020A60012180F83D100020EF
:1029F000704770B5044690F83C00012817D00125B7
:102A000084F83C50022084F83D002068826822F05F
:102A1000770222F47F4282600868502830D00DDCB3
:102A200020284DD005DC98B310283BD148E0022087
:102A300070BD302844D0402834D139E0602828D0F7
:102A4000702806D0B0F5805F2CD0B0F5005F29D19A
:102A50000AE0CB68D1E90121206800F0A4FC2068DD
:102A6000816841F0770109E0CB68D1E90121206854
:102A700000F099FC2068816841F48041816011E098
:102A8000CA684968206800F043FD5021206807E0CB
:102A900016E0CA684968206800F04BFD6021206894
:102AA00000F08BFC84F83D50002084F83C0070BDA1
:102AB000CA684968206800F02BFD40212068EFE7D4
:102AC000226801461046EBE710B586B00021009160
:102AD000019102910391134C036813490222134898
:102AE000A3420AD18B6943F004038B61896901F029
:102AF000040104914FF470610BE0B3F1804F0ED1EB
:102B00008B6943F004038B61896901F0040104912E
:102B10000121CDE9001269460392FFF7E3F806B000
:102B200010BD0000002C01400010024000080140D0
:102B300070B5044690F83C000D4601280AD00120EB
:102B400084F83C0042B1042A18D0082A2AD00C2A62
:102B50004DD139E0022070BD206800F037FC2068BC
:102B6000816941F0080181612068816921F00401D7
:102B70008161206881692A69114311E0206800F0B1
:102B80004DFC2068816941F40061816120688169A0
:102B900021F480618161206881692A6941EA02210A
:102BA000816124E0206800F065FC2068C16941F083
:102BB0000801C1612068C16921F00401C161206878
:102BC000C1692A69114311E0206800F07FFC206888
:102BD000C16941F40061C1612068C16921F480616B
:102BE000C1612068C1692A6941EA0221C1610020EE
:102BF00084F83C0070BD10B5040003D094F83D008B
:102C000010B107E0012010BD002084F83C002046F0
:102C100000F01EF8022084F83D00211D206800F01D
:102C20007FFB012084F8460084F83E0084F83F00D2
:102C300084F8400084F8410084F8420084F843009E
:102C400084F8440084F8450084F83D00002010BD5D
:102C50007047000010B50446022249B104290ED085
:102C6000082913D094F84100012816D0012010BD86
:102C700094F83E000128F9D184F83E200FE094F842
:102C80003F000128F2D184F83F2008E094F840008A
:102C90000128EBD184F8402001E084F84120012292
:102CA000206800F073FB0F492068884203D1426C12
:102CB00042F4004242642068884208D0B0F1804F5C
:102CC00005D00949884202D00849884204D1816868
:102CD00001F00701062903D0016841F001010160FC
:102CE000002010BD002C01400004004000080040FE
:102CF000FEE701684A69D24352050FD46FF480623F
:102D00004A61002140F8301F20224273817302691A
:102D100042F00402026101730120704700207047F5
:102D2000F8B50446C06A1E460D461746082807D067
:102D3000012805D010F5803F02D0206B122804D165
:102D40002068016841F480710160134600224FF051
:102D500001112046009600F057F840B12068006845
:102D6000C00502D54FF4007020640320F8BD20692F
:102D7000B0F5804F0ED00620216800EAD51040F053
:102D8000F000086133463A460B49204600F070F8DF
:102D900078B902E005F0FE0000E0E8B221680861C1
:102DA000054933463A46891F204600F061F800285D
:102DB000DCD00120F8BD00000800010070B5164607
:102DC0000D4604460DE02046FFF793FF08B10120B1
:102DD00070BD681C05D0FFF77FF8801BA84207D89C
:102DE00035B120684069C0434007ECD4002070BD75
:102DF000002044F8300F20216173A073216941F055
:102E0000200121612073E2E72DE9F0471E4690463C
:102E10000D460446C1F30747DDF8209008E0701C1A
:102E200006D0FFF759F8A0EB0900B0420FD876B1F1
:102E30002068012F18D0806925EA00000004000CEA
:102E400014D000214145EAD00020BDE8F0870020E1
:102E500044F8300F20216173A073216941F02001F3
:102E6000216120730120F0E74069E5E70121E9E7EE
:102E70002DE9F0479A4691460E46044600254FF04C
:102E80002008C1F3074725E020684069C04340059A
:102E900014D42068016841F40071016021686FF466
:102EA00080604861256384F83D8084F83E50206C42
:102EB00040F00400206484F83C501FE0B9F1FF3F6B
:102EC00008D0FFF709F8A0EB0A0149450CD8B9F181
:102ED000000F09D02068012F13D0806926EA000076
:102EE0000004000C0BD0CFE744F8305F84F80D806D
:102EF000A573206940F02000206125730120BDE802
:102F0000F0874069EAE770B516460D4604460DE0C5
:102F10002046FFF7EEFE08B1012070BD681C05D009
:102F2000FEF7DAFF801BA84207D835B12068406958
:102F3000C0430006ECD4002070BD002044F8300FE0
:102F400020216173A073216941F020012161207368
:102F5000E2E700002DE9F04786B0002434480094F1
:102F6000019402940394816941F0100181618169A7
:102F700001F010010491816941F0200181618169B2
:102F800001F020010491816941F0040181618169AE
:102F900001F004010491816941F0080181618069B7
:102FA000DFF8908000F008004FF4005504900022F4
:102FB00029464046FEF78BFFDFF87C900022022175
:102FC0004846FEF784FFDFF874A040F2FB170022AA
:102FD00039465046FEF77BFF0095022601250396F1
:102FE000CDE9015469464046FEF77CFECDE9006517
:102FF000CDE9024669464846FEF774FE3C208DE85E
:10300000310069464846FEF76DFE00970396CDE90C
:10301000015469465046FEF765FE4FF470408DE856
:10302000310069465046FEF75DFE06B0BDE8F08708
:10303000001002400010014000080140000C014057
:103040000D4810B50B4901600C49416000214FF457
:1030500080428160C0E9031241618161C161016206
:10306000FEF740FF002803D0BDE81040FEF725BE64
:1030700010BD0000005800409C010020A086010007
:1030800010B596B000240F941094119412941394D8
:103090001C2168461494FDF742F9202107A8FDF78A
:1030A0003EF93448324901604721C0E9011444F631
:1030B0001F61C0E9031444618461FFF705FC08B196
:1030C000FEF7FBFD4FF480500F900FA92948FFF742
:1030D00090FC08B1FEF7F1FD2648FFF78CFD08B122
:1030E000FEF7EBFD139413A922481494FFF7B8FBE5
:1030F00008B1FEF7E2FD6020CDE9000402940394DC
:1031000004940594002269461A480694FFF710FDBE
:1031100008B1FEF7D2FD042269461648FFF708FD04
:1031200008B1FEF7CAFD082269461248FFF700FD04
:1031300008B1FEF7C2FD0C2269460E48FFF7F8FC05
:1031400008B1FEF7BAFD0794089409944FF40050B3
:103150000A94CDE90B4007A906480E94FFF756FBE9
:1031600008B1FEF7AAFD0348FFF7AEFC16B010BD8C
:10317000002C0140F001002010B58EB0002407940F
:10318000089409940A940B941C2168460C94FDF74A
:10319000C6F81E484FF0804101604721C0E9011484
:1031A00040F2E731C0E903148461FFF78DFB08B1F9
:1031B000FEF783FD4FF48050079007A91348FFF7EF
:1031C00018FC08B1FEF779FD1048FFF714FD08B1AF
:1031D000FEF773FD0B940BA90C480C94FFF740FB12
:1031E00008B1FEF76AFD6020CDE9000402940022D8
:1031F000694606480494FFF79BFC08B1FEF75DFDA5
:103200000248FFF761FC0EB010BD0000380200203C
:1032100010B586B0002417480094019402940394DA
:1032200004941349059401604721C0E901144FF645
:10323000FF71C0E903148461FFF746FB08B1FEF794
:103240003CFD4FF48050009069460A48FFF7D1FBDF
:1032500008B1FEF732FD049404A906480594FFF76F
:10326000FFFA002801D0FEF728FD06B010BD0000CF
:103270000008004080020020FEE7FEE7704770472C
:1032800010B5FEF7B9FF0C4CE078401CC0B2E070FE
:1032900005280FD14FF400510848FEF713FE607067
:1032A0006078A178884203D0012020700020E0706F
:1032B0006078A07010BD00002C000020000C0140C0
:1032C00030B58FB028216846FDF729F814210AA8E7
:1032D000FDF725F801210804CDE90010002402942F
:1032E00002250491CDE907504FF4E010099068469B
:1032F000FFF7E8F808B172B6FEE70F20CDE90A053E
:103300004FF48060CDE90C4002210AA80E94FEF72C
:10331000FDFF002801D072B6FEE70FB030BD704748
:10332000F0B50268164B174C174D4FF08047984286
:1033300005D0B84203D0A04201D0A84203D122F068
:1033400070064A683243984205D0B84203D0A04282
:1033500001D0A84203D122F44074CA6822434C69C8
:1033600022F08002224302608A68C2620A68826296
:10337000984201D10969016301214161F0BD00005A
:10338000002C0140000400400008004010B501F08E
:103390001F030121046A99408C430462016A9A4028
:1033A0001143016210BD10B5846842EA032224F47F
:1033B0007F440A432243826010BD826822F070027B
:1033C0000A4342F0070181607047000030B5026A8D
:1033D00022F001020262026A4368846924F07305E4
:1033E0000C682C4322F002058A682A430A4DA84241
:1033F0000BD122F00805CA6823F440732A434D69B3
:1034000022F004021D438B692B43436084614968A9
:103410004163026230BD0000002C014030B5026AF9
:1034200022F010020262026A436884690D6824F483
:10343000E64444EA05248D6822F0200242EA05129F
:103440000B4DA8420ED1CD6822F0800242EA05124F
:103450004D6923F4406343EA85038D6922F04002FD
:1034600043EA85034360846149688163026230BD39
:10347000002C014030B5026A22F480720262036AB5
:103480004268C46923F4007324F073050C682C436C
:103490008D6843EA05230C4DA8420ED1CD6823F474
:1034A000006343EA05234D6922F4405242EA0512C3
:1034B0008D6923F4806342EA05124260C461496861
:1034C000C163036230BD0000002C014030B5026AC8
:1034D00022F480520262046A4268C3690D6823F4D0
:1034E000E64343EA05238D6824F4005444EA053496
:1034F000064DA84204D14D6922F4804242EA851269
:103500004260C36149680164046230BD002C01401F
:1035100010B5036A046A24F001040462846924F08B
:10352000F00444EA021423F00A020A4384610262AE
:1035300010BD10B5036A23F0100303628369046AA7
:1035400023F4704343EA023224F0A00343EA01115A
:103550008261016210BDFEE7490050EAC12018BF38
:1035600004204A0D18BF40F0010040F2FF72B2EB98
:10357000515F08BF40F00200012808BF05207047D6
:103580000907090E002804DB00F1E02080F8001490
:10359000704700F00F0000F1E02080F8141D704724
:1035A00030380A2801D20120704700207047704748
:1035B000808AB0F5005F0CD1BFF34F8F05480168DA
:1035C000054A01F4E06111430160BFF34F8F00BF72
:1035D000FDE770470CED00E00400FA052DE9F0412D
:1035E000DC4C828A012503260227207A4FF004084A
:1035F000B2F5805F70D010DCD6494FF00005042A88
:10360000C97924D0082A68D0102A67D0202A7DD111
:1036100003297BD103286BD028E1B2F5005F68D085
:10362000B2F5804F74D0B2F5004F6FD102286DD043
:103630002672E571C84800F043FD1420FEF740FBF8
:1036400000221146C44800F0D9FDC4A16AE1012955
:103650005CD1032821D12078032840D000F01AFA49
:10366000BC480C3000F0AFFF20780922401C2070CD
:103670000021B94800F0C2FDBBA1B74800F05CFDD5
:103680000B220121B44800F0B9FD2278B9A1B2485B
:1036900000F052FDE079012838D1207A042835D194
:1036A000E078052826D000F0F5F9AA480C3000F0A3
:1036B0008AFFE0780922401CE0700021A64800F053
:1036C0009DFDA9A1A44800F037FD0B220121A248CD
:1036D00000F094FDE278E4E013E11AE074E0257074
:1036E0000B2201219C4800F089FD227809E00DE0C1
:1036F0009AE0DCE0E5700B220121974800F07EFDA6
:10370000E2789CA1944800F017FDE771BDE8F081D4
:10371000DEE00229FAD1032821D1607805283DD0C6
:1037200000F0B8F98B48143000F04DFF60780922A2
:10373000401C60700021884800F060FD8EA1864822
:1037400000F0FAFC0B220121834800F057FD62785B
:1037500088A1814800F0F0FCE0790228D6D1207AD7
:103760000428D3D12079052820D000F093F9794896
:10377000143000F028FF20790922401C207100211C
:10378000754800F03BFD7CA1734800F0D5FC0B228E
:103790000121714800F032FD227982E065700B2230
:1037A00001216D4800F02AFD627838E025710B2276
:1037B0000121694800F022FD22796EA1664800F0DF
:1037C000BBFC84F80780A1E704299FD103281DD002
:1037D00004289BD1A07904281AD000F05BF95D4839
:1037E0001C3000F0F0FEA0790922401CA0710021DD
:1037F000594800F003FD62A1574800F09DFC0B22E0
:103800000121554800F0FAFCA2794AE0E6717DE713
:10381000A5710B220121504800F0F0FCA27955A1BE
:103820004D4800F089FCF1E700F034F949482430B4
:1038300000F0C9FEA0780922401CA0700021464873
:1038400000F0DCFC51A1444800F076FC0B22012181
:10385000414800F0D3FCA27846A13F4800F06CFC40
:10386000A0780328AFD0E0790328ACD1207A0428CF
:10387000A9D100F00FF93748243000F0A4FE607998
:103880000922401C60710021334800F0B7FC3FA1C1
:10389000314800F051FC0B2201212F4800F0AEFC12
:1038A0006279BDE8F04133A12B4800F045BC1420FB
:1038B000FEF706FA284800F003FC03220021264800
:1038C00000F09CFC34A1244800F036FC25721DE772
:1038D00001289CD02772204800F0F2FB1420FEF74C
:1038E000EFF9012200211C4800F088FC2EA11A48A3
:1038F00000F022FC00220121174800F07FFC2EA1DD
:1039000022E00228E3D084F80880E571124800F034
:10391000D7FB1420FEF7D4F9002211460E4800F020
:103920006DFC2AA10C4800F007FC002201210A4886
:1039300000F064FC28A1084800F0FEFB09220121E8
:10394000054800F05BFC25A1BDE8F041024800F00D
:10395000F3BB000000000020400000204D41432048
:103960003735207C000000004341542020202020D7
:103970002000000025640000582E4D414E470000F5
:103980004441202020202020000000004E554F43BD
:1039900020202020200000005374617274696E673B
:1039A0002E2E2E2E000000003C53544F5045442034
:1039B00053595354454D3E002D3E5374617274204B
:1039C000746F205265736574000000004D41432000
:1039D000323030207C000000573A2000543A20005A
:1039E000704770B50446818A0069FEF76BFAA178CA
:1039F0000126814204D0A070E670FEF76DFA606087
:103A0000E078002540B1FEF767FA6168401A0F2898
:103A100002D3A0782070E57020786178884210D0B9
:103A2000F8B1FEF759FAA168401AB0F57A7F02D8CA
:103A30002046FFF7BCFD2046FFF7D2FF2573207814
:103A40006070207B00280BD0FEF746FAA168401A70
:103A500040F6C411884203D32046FFF7A9FD257321
:103A600070BD26732046FFF7B9FDFEF735FAA0605A
:103A7000E5E701618282704710B501220221044806
:103A8000FEF725FA4FF080414FF42F70486310BDC8
:103A90000008014010B5002202210348FEF717FA82
:103AA00001208107486310BD000801402DE9F05F47
:103AB000E34D04462846E4492A7ADFF888B3C07902
:103AC0004FF000094FF0050A01F124064FF40007FA
:103AD00001F16C08032A28D0042A7DD105287BD067
:103AE000002879D0D94AE069904276DB8C4274D1C3
:103AF00003220121A6F1300000F080FBE069B8420A
:103B00000CDB4FF0814100F09BFF00F0B3FD02465B
:103B10000B46CFA1A6F1300000F00EFBC8480C30D8
:103B200000F042FDFFF7A8FFC6E0052854D00028AA
:103B300052D0C94AE06990421EDB8C421CD1C24877
:103B4000032201210C3800F059FBE069B8420CDB7C
:103B50004FF0814100F074FF00F08CFD0246BA483E
:103B60000B46BBA10C3800F0E7FAB5480C3000F06A
:103B70001BFDFFF781FF11E010F0FF4F0ED18C42CB
:103B80000CD1287850B1B048032201210C3800F044
:103B900035FBAD48B1A10C3800F0CEFAE0695845CC
:103BA00021DBB4421FD1A848032201210C3800F0C8
:103BB00025FBE069B8420CDB4FF0814100F040FF8B
:103BC00000F058FD0246A0480B46A1A10C3800F0B9
:103BD000B3FA9B48143001E0D6E05BE000F0E4FC6F
:103BE000FFF74AFF11E010F0FF4F0ED1B4420CD1A5
:103BF000687850B19448032201210C3800F0FEFA95
:103C0000914896A10C3800F097FA9549E0698842EE
:103C100039DB444537D18C48032201210C3800F0B0
:103C2000EDFAE069B8420CDB4FF0814100F008FF8B
:103C300000F020FD024684480B4685A10C3800F0B8
:103C40007BFA7F48243000F0AFFCA878032819D114
:103C50007D4885F807A0002201210C3800F0CEFA3B
:103C6000794880A10C3800F067FA774804220121D6
:103C70000C3800F0C3FA74487EA10C3800F05CFAEE
:103C800085F80290C1E010F0FF4F7DD144457BD113
:103C9000A878C4E010F0FF4F0ED18C420CD1E87828
:103CA00050B16948032201210C3800F0A7FA664898
:103CB0006AA10C3800F040FAE06958451EDBB442B6
:103CC0001CD16148032201210C3800F097FAE06909
:103CD000B8420CDB4FF0814100F0B2FE00F0CAFCAC
:103CE000024659480B465AA10C3800F025FA5448B0
:103CF000143000F059FCFFF7BFFE11E010F0FF4F49
:103D00000ED1B4420CD1287950B14F480322012181
:103D10000C3800F073FA4C4850A10C3800F00CFA43
:103D20004948574AE169483091421DDB84421BD122
:103D300003220121543800F061FAE069B8420CDB3B
:103D40004FF0814100F07CFE00F094FC02463E48BA
:103D50000B463FA10C3800F0EFF939481C3000F059
:103D600023FCFFF789FE13E011F0FF4F10D18442CE
:103D70000ED1A87960B13448032201210C3800F03B
:103D80003DFA36A1304800E058E00C3800F0D4F994
:103D90003C49E06988423CDB44453AD12A48032249
:103DA00001210C3800F02AFAE069B8420CDB4FF030
:103DB000814100F045FE00F05DFC024622480B46C2
:103DC00023A10C3800F0B8F91D48243000F0ECFBBA
:103DD0006879022819D11C4885F807A00022012122
:103DE0000C3800F00BFA18481EA10C3800F0A4F9AA
:103DF0001548042201210C3800F000FA12481DA1D8
:103E00000C3800F099F985F80590BDE8F05FFFF7F0
:103E100033BE10F0FF4F11D144450FD1687900280F
:103E20000CD00948032201210C3800F0E7F9BDE865
:103E3000F05F054809A10C3800F07EB9BDE8F09F9D
:103E4000000000200000CC424C00002000007E4317
:103E5000252E30660000000000004B43202020008B
:103E60000000F4422020202020202020202020209C
:103E70002020200046494E49534845440000000098
:103E800000400144000012434161704770B5044690
:103E90000425C068FEF79AFDE168002009684862C1
:103EA000E068FEF76BFDE0680068416AA942FCD952
:103EB00070BD000010B504460E48844201D10121B6
:103EC0000DE00D48844201D1012108E00B488442F5
:103ED00001D1012103E00A48844207D1012100F009
:103EE000C5F800F017FD00F04DFDE0612046FFF73A
:103EF000DDFD10BD4C00002070000020940000206B
:103F0000B80000202DE9FF5F9A46DDE90E751646E0
:103F10008B46044600F036F8C4F800B0E560268110
:103F2000C4F804A067814FF0030900254FF0010891
:103F3000CDF80C900096CDE9018569465846FDF70D
:103F4000D1FE01AA009782E8200369465046FDF79A
:103F5000C9FE218901222068FDF7B9FF0A20FDF77B
:103F6000AFFE218900222068FDF7B1FF0A20FDF78E
:103F7000A7FE204600F034F8204600F031F8257600
:103F8000BDE8FF9F10B5044602E02046FFF77EFF24
:103F9000207E0028F9D10120207610BD2DE9F041C6
:103FA0000F468046FFF7EEFF00252C462E4608E020
:103FB000404600F015F8451906F1010644EBE0749F
:103FC000B6B2BE42F4D300263A46334628462146CE
:103FD000FCF750F9C8F8100088F81860BDE8F081C7
:103FE00070B504460025FDF777FF064607E000BFE1
:103FF000FDF772FF801B962801D9002070BD6189F2
:104000006068FDF75FFF0128F2D0002621890122B8
:104010002068FDF75CFF2046FFF738FF218900226A
:104020002068FDF754FF2046FFF730FF6D006189DF
:104030006068FDF747FF012800D16D1C761C76B241
:10404000182EE3DB85F40005218901222068FDF7A5
:104050003EFF2046FFF71AFF218900222068FDF766
:1040600036FF2046FFF712FF284670BD2DE9F041CC
:104070000F468046FFF786FF00252C462E4609E0B6
:104080004046FFF7ADFF01464D1906F1010644EB2E
:10409000E074B6B2BE42F3D300263A463346284611
:1040A0002146FCF7E7F8D8F81010401A00F052FC4F
:1040B000D8F8141000F06CFB88F81860BDE8F081A7
:1040C00010B5012100F055F8BDE810400120FDF7C2
:1040D000F7BD10B50446416050002070207A3321AE
:1040E00040F004002072204600F043F832212046C0
:1040F00000F03FF80520FDF7E3FD0121204600F028
:1041000038F80520FDF7DCFD0C21204600F031F8E1
:104110000520FDF7D5FD0221204600F02AF80520F4
:10412000FDF7CEFD8021204600F023F8204600F068
:1041300075F80820607210BD0FB470B586B00546E2
:104140000CAA68460B99FCF7B9F800246E4605E006
:10415000315D284600F02DF8641CE4B26846FCF797
:10416000BFF8A04201D9102CF2D306B070BC5DF8A4
:1041700014FB1CB501F0F002437A42F004041C4326
:104180008DF8044013438DF805300901427A41F05F
:1041900004031A438DF80620427A04230A438DF85B
:1041A0000720642100910178406801AAFDF75EFFB5
:1041B0001CBD1CB501F0F002437A42F005041C431B
:1041C00042F001028DF8044013438DF805300901D7
:1041D000427A41F005031A438DF80620427A41F0F5
:1041E00001010A438DF8072064210091017840689D
:1041F000042301AAFDF73AFF1CBD000008B506A381
:104200001B6800931DF801101144C9B241F08001F0
:10421000FFF7AFFF08BD000000401454017A21F001
:104220000101017241F00801FFF7A3BF1CB5FDF7C2
:10423000EBFFFFF745F8FEF78DFEFEF7E9FFFEF70F
:104240001FFFFEF799FFFEF7FBFE2722B149B24898
:10425000FFF73FFF6420FDF733FD02220021AE4847
:10426000FFF7CCFFADA1AC48FFF766FF03220121A9
:10427000A948FFF7C3FFACA1A748FFF75DFFAD4812
:1042800001780029FCD0AC4C0126A3482672FFF728
:1042900017FF01220021A048FFF7B0FF0A20FDF719
:1042A0000FFDA6A19C48FFF747FF012211469A483F
:1042B000FFF7A4FFA5A19848FFF73EFF4FF00008C5
:1042C000DFF898A24FF4005984F807804246494627
:1042D0005046FDF7FCFD0022A14904F10C0000F05E
:1042E00066F904229E4904F1140000F060F90822E6
:1042F0009B4904F11C0000F05AF90C22984904F182
:10430000240000F054F900219648FEF7A3FC964DD6
:104310008148042229469C30FFF7ABFB7E480822E7
:104320002946B430FFF7A5FB7B4810222946CC3044
:10433000FFF79FFB784820222946E430FFF799FBDE
:104340008A4F75484A463946FC30FFF792FBB20364
:1043500039468748FFF78DFB8548F2033946183008
:10436000FFF787FB8248AA1439463030FFF781FBFC
:104370004FF4FA752846FDF7A3FC04F10C0000F099
:1043800013F92846FDF79CFC04F1140000F00CF929
:104390002846FDF795FC04F11C0000F005F92846BD
:1043A000FDF78EFC04F1240000F0FEF8C820FDF7B4
:1043B00087FC704D0220CDE9000557483B4601229D
:1043C00019460C30FFF79EFD1020CDE9000552483C
:1043D0003B46082219463030FFF794FD4020CDE9D6
:1043E00000054D483B46202219465430FFF78AFD10
:1043F0003002CDE9000548483B4680221946783016
:10440000FFF780FDC820FDF75BFC43485A490C309C
:10441000FFF73AFD404859493030FFF735FD3E4837
:1044200057495430FFF730FD3B4856497830FFF785
:104430002BFDC820FDF744FC37480A210C30FFF75C
:10444000ADFD35480A213030FFF7A8FD32480A217A
:104450005430FFF7A3FD30480A217830FFF79EFD66
:10446000012249465046FDF732FDE67184F8088086
:10447000FFF702FB0A20FDF723FC2748FFF720FE89
:10448000002211462448FFF7B9FE3FA12248FFF75A
:1044900053FE4FF47A70FDF713FC1F48FFF710FE30
:1044A000032200211C48FFF7A9FE3BA11A48FFF791
:1044B00043FE2F487838FFF794FA2D486038FFF70D
:1044C00090FA2B484838FFF78CFA29483038FFF724
:1044D00088FA27481838FFF784FA2548FFF781FA49
:1044E00023481830FFF77DFA21483030FFF779FA7A
:1044F00009480C30FFF7DEFC07483030FFF7DAFCE4
:1045000005485430FFF7D6FC03487830FFF7D2FC5B
:10451000CFE700009C01002040000020507265732E
:1045200073205354415254002E2E2E2E2E2E2E2EFA
:10453000000000002C000020000000204361626C9D
:1045400069726174696F6E2E2E2E0000496E697457
:1045500069616C697A652E2E2E2E000000100140D4
:10456000F00100203802002000080140000C01404A
:10457000540100208002002000C0F84400400D4596
:104580000040DD4300A0F544436F6D706C657465B9
:10459000204361626C6962005374617274696E6772
:1045A0002E2E2E2E00000000002100F00FB810B5B6
:1045B00001600B460446828011461846FEF74AFB0E
:1045C0000020A07110BD5A21AFF3008040F23A7272
:1045D0005143B422B1FBF2F101F5FA71828889B23C
:1045E0004AB1042A0BD0082A0DD00C2A02D1006847
:1045F00000680164704700680068416370470068A4
:1046000000688163704700680068C16370470000FC
:1046100010B500290AD00878002807D0054878444A
:10462000FCF73AFF002801D0002010BD0248784472
:1046300010BD00004A0600004206000010B5002927
:104640000AD00878002807D005487844FCF724FFF2
:10465000002801D0002010BD0248784410BD0000A1
:104660003A060000320600000808A0F500114FEAE3
:104670003101704743004FEAD30C4FEA3C0C4340F2
:104680001FBF40070CF1605113F0FE4F70471CF044
:10469000006F03D100200CF0004170470CF0004384
:1046A00043EA507010B540EACC0000F07EF900BF3C
:1046B000000000924FEA0001FFF7D6BF4FF0004123
:1046C0004FF00000A1F500217047000090EA010FB3
:1046D00048BF81F0004100F1BA81421A3CBF801A04
:1046E00089184FEAD0524FF07F4C1CEA410FA2EBE1
:1046F000D15318BF9CEA026F00F03B804FF0004C92
:104700004CEA00204CEA012121FA03FC10EB0C0CCE
:104710001ED202F1FF325FEA1C2040EBC25038BFCC
:1047200070471CF07F0F4FEA400C18BFBCF17F4F61
:1047300038BF7047C3F12003994008BF20F0010043
:10474000BCF17F4F38BF7047A0F1C04000F073B993
:104750004FEA3C00000A40EBC25028BF1CF0FF0F9C
:104760004FEA400CE6D018BFBCF17F4F38BF70470E
:10477000EAE79CEA026F05D010EA5C0F08BF00F080
:104780000040704710B500F010F900BF64FBBE3E5A
:104790004FF47F0C1CEAD0121EBF1CEAD11392EA20
:1047A0000C0F93EA0C0F00F0858090EA010F48BFD0
:1047B00042F4807240F4000C41F400002CF07F4180
:1047C00020F07F4000B58142A2EB03020FF2081CEB
:1047D000ACEB504EC0F100009EF800E04FEA4E0EE8
:1047E00000FB0EFC38BF49004FEA2C1C02F5FA0210
:1047F0000CFB0EF34FEACE1E4FEA112C4FEAC121FB
:104800000EEB635E42EB22420EFB0CFC4FEA1C53A4
:1048100000FB03114FEA112C4FEA01310EFB0CFC97
:104820004FEADC4C00FB0C11C14228BF09184CEBCD
:1048300003335DF804EB10EB410143EBC250B2F5DA
:104840007C0F38BF704729D512F0F00F1CBF00F164
:10485000C04000F0004070470081828384858687D5
:1048600088898B8C8D8E8F919293959697999A9C2F
:104870009D9FA0A2A3A5A7A8AAACAEB0B2B3B5B79E
:10488000B9BCBEC0C2C5C7C9CCCED1D4D7D9DCDF74
:10489000E2E6E9ECF0F3F7FAFE0000004FEA400C24
:1048A0000CF1807CBCF17E4F28BF7047B0F1C04056
:1048B00000F0C1B890EA010F0CEAD11348BF42F4EE
:1048C0008072624538BF634507D213F47F0F16D05C
:1048D00080EA010000F00040704710B500F065F874
:1048E000097EFC3E00F005B880EA010000F00040BF
:1048F000704780EA010000F0004000F09CB812F41C
:104900007F0F04BF0248704780EA010000F093B8AF
:104910000000C07FC10DD1F19E0206DB4FEA0023EB
:1049200043F0004323FA02F07047004207D54FEAF4
:104930004001B1F1FE4F02D24FF00000704710B5B8
:1049400000F033F849922480002070476FEA20007D
:104950007047000010F0004148BF4042B0FA80F3B9
:1049600010FA03F2C3F19D030BD051EAC35101EBDE
:104970001220530638BF704700F1010008BF20F035
:1049800001007047B0FA80F310FA03F2C3F19D03FF
:104990000AD0D90501EB1220530638BF704700F149
:1049A000010008BF20F0010070470EF1020E2EF04A
:1049B000030E5EF8044B244204D44FEA4102B2F1E4
:1049C0007F4F11D84FEA4003B3F17F4F0CD80ED17F
:1049D0004FEAD07CB2F17F4F0CEB4C0C0CF1020C87
:1049E00008BF4CEBD17C04E04FF0080C01E04FEA2B
:1049F000D17C0CEB4C0324FA03F404F00704B4F16B
:104A0000040C06D20EEB840CBDE810404CF0010CF7
:104A10006047DFE80CF0070802024FF00040A0F505
:104A2000800010BD0846420018BFD2F1807288BFD6
:104A300000F0004010BDFF2141EAD050C005704792
:104A400090EA010F48BF81F000413FF546AE421A9F
:104A500004D882F00042A0EB020011444FEAD05289
:104A60004FF07F4C1CEA410FA2EBD15318BF9CEAD8
:104A7000026F4AD04FF0004C4CEA00204CEA012172
:104A800021FA03FCB0EB0C0C0FD412F0FE0F36D061
:104A90005FEA4C001DD5001240EBC25038BF704792
:104AA0001CF03F0F18BF70470BE0A2F101025FEA54
:104AB0001C2040EBC25038BF70471CF07F0F18BF5E
:104AC0007047C3F12003994014BF401E20F001003D
:104AD000704780084FEA122308BF7047B0FA80FC85
:104AE000A2EB0C02CCF1280C60FA0CF093EA122F26
:104AF00004BF00EBC25070474FEAC3707047130AFF
:104B00005FEADC1008BF7047F6E79CEA026F04D04A
:104B100010EA5C0F08BF0020704710B5FFF745FF93
:104B200040DFF63E81F000407047FCF7C2B8FCF76A
:104B3000F7B90000000000000000010203040607AE
:104B4000080900000000010203040000000000004A
:104B500000000000303132333435363738394142C5
:104B600043444546403058003031323334353637CF
:104B7000383961626364656640307800040000087B
:104B8000000000000000000200010000103031327F
:104B9000333435363738396162636465667870005E
:104BA0003031323334353637383941424344454663
:104BB0005850000002400000000000A0000000006B
:104BC00005400000000000C8000000000C4000008C
:104BD0000000409C00000000194000000020BCBE06
:104BE0000000000034400000BFC91B8E000000041C
:104BF000B5400000504BCFD06607E2CF0100000067
:104C00006C4100003E8251AADFEEA7340100000093
:104C1000D9420000DCB5A0E23A301F97FFFFFFFF4A
:104C2000B4450000FD25A0C8E9A3C14FFFFFFFFF69
:104C3000FF3F00000000008000000000FF3F000078
:104C40000000008000000000944D000800000020DB
:104C50004000000028010008D44D0008400000205A
:104C6000E8080000440100081C00000043000000A8
:104C7000F8FFFFFF0C0000000E0000000F00000016
:104C80002E0000001001000043000000F8FFFFFFAD
:104C9000004040404040404040404141414141404F
:104CA0004040404040404040404040404040404004
:104CB0004005020202020202020202020202020293
:104CC0000220202020202020202020020202020298
:104CD00002029090909090901010101010101010F0
:104CE00010101010101010101010101002020202FC
:104CF0000202888888888888080808080808080840
:104D0000080808080808080808080808020202023B
:104D10004000000000000000000000000000000053
:104D20000000000000000000000000000000000083
:104D30000000000000000000000000000000000073
:104D40000000000000000000000000000000000063
:104D50000000000000000000000000000000000053
:104D60000000000000000000000000000000000043
:104D70000000000000000000000000000000000033
:104D80000000000000000000000000000000000023
:104D90000000000000000000000000000000000013
:104DA0000000000000000000000000000000000003
:104DB00000000000000000000000000000000000F3
:104DC00000000100010000001000000000000000D1
:044DD0000024F400C7
:04000005080000ED02
:00000001FF
